:020000040800F2
:10000000780B0020AD010008B5010008B701000819
:1000100000000000000000000000000000000000E0
:10002000000000000000000000000000B90100080E
:100030000000000000000000BB010008BD01000836
:10004000BF01000800000000BF010008BF01000858
:10005000BF010008BF010008C5060008BF01000875
:1000600000000000BF010008BF010008BF01000838
:10007000BF010008BF010008BF0100080000000028
:10008000D11200080000000000000000A1120008CA
:1000900000000000BF010008BF010008BF01000808
:1000A00000000000BF01000800000000BF010008C0
:1000B00000F002F800F032F80CA030C8083824181C
:1000C0002D18A246671EAB4654465D46AC4201D190
:1000D00000F024F87E460F3E0FCCB6460126334290
:1000E00000D0FB1AA246AB4633431847DC1500008C
:1000F000FC1500000023002400250026103A01D33F
:1001000078C1FBD8520700D330C100D50B607047CF
:100110001FB500F07DF81FBD10B510BD00F071F9DE
:100120001146FFF7F5FF01F06FF900F089F903B40C
:10013000FFF7F2FF03BC00F08FF9000030B40C4968
:100140000C684A6823681068C0181060241D121DCE
:100150008C4207D28A4208D20C604A6030BC400010
:10016000400870470C00DC3CF6E70A00DC3AF3E795
:100170001005002070B505460C46164602E00FCC6F
:100180000FC5103E102EFAD2082E02D303CC03C5A1
:10019000083E042E07D301CC01C5361F03E02178A9
:1001A0002970641C6D1C761EF9D270BD074880470B
:1001B00007480047FEE7FEE7FEE7FEE7FEE7FEE74B
:1001C00004480549054A064B704700009D12000887
:1001D000B100000878050020780B00207807002087
:1001E000780700200B4A30B511460B4C60310B46A6
:1001F000DC3B0CC1372106E0020C8D0012185A516D
:10020000064A504300190A46491E002AF4DC30BD54
:100210000120E7E7B0040020E119D666CD0D01000A
:10022000F8B5042A2CD3830712D00B78491C03702D
:10023000401C521E83070BD00B78491C0370401CD6
:10024000521E830704D00B78491C0370401C521EB9
:100250008B079B0F05D0C91ADF002023DE1B08C9BE
:100260000AE0FFF787FFF8BD1D4608C9FD401C46A0
:10027000B4402C4310C0121F042AF5D2F308C91A47
:10028000521EF0D40B78491C0370401C521EEAD455
:100290000B78491C0370401C012AE4D409780170D2
:1002A000F8BD002203098B422CD3030A8B4211D3E1
:1002B00000239C464EE003460B433CD400224308F7
:1002C0008B4231D303098B421CD3030A8B4201D3E7
:1002D00094463FE0C3098B4201D3CB01C01A52417F
:1002E00083098B4201D38B01C01A524143098B42CF
:1002F00001D34B01C01A524103098B4201D30B01B8
:10030000C01A5241C3088B4201D3CB00C01A5241DC
:1003100083088B4201D38B00C01A524143088B42A1
:1003200001D34B00C01A5241411A00D2014652413A
:10033000104670475DE0CA0F00D04942031000D359
:100340004042534000229C4603098B422DD3030AAE
:100350008B4212D3FC22890112BA030A8B420CD3BE
:10036000890192118B4208D3890192118B4204D3E7
:1003700089013AD0921100E08909C3098B4201D367
:10038000CB01C01A524183098B4201D38B01C01AA1
:10039000524143098B4201D34B01C01A5241030918
:1003A0008B4201D30B01C01A5241C3088B4201D3C7
:1003B000CB00C01A524183088B4201D38B00C01A74
:1003C0005241D9D243088B4201D34B00C01A52414B
:1003D000411A00D20146634652415B10104601D3D8
:1003E0004042002B00D54942704763465B1000D362
:1003F000404201B50020C046C04602BD704770476C
:100400007047754600F024F8AE460500694653462D
:10041000C008C000854618B020B5FFF7D1FE60BC0B
:1004200000274908B6460026C0C5C0C5C0C5C0C51E
:10043000C0C5C0C5C0C5C0C5403D49008D46704758
:1004400010B50446C046C0462046FFF770FE10BDFA
:10045000004870471805002001491820ABBEFEE790
:1004600026000200704770B58C180578401C6B0799
:100470005B0F01D10378401C2A1106D10278401C81
:1004800003E00678401C0E70491C5B1EF9D12B0757
:1004900005D40023521E0DD40B70491CFAE70378D3
:1004A000401CCB1A921C03E01D780D70491C5B1C8C
:1004B000521EF9D5A142D8D3002070BD10B5044614
:1004C0002046FFF78FFE00200749086009E0002062
:1004D0000649086000F020F903480068012800D1AF
:1004E00000E0F4E700BF10BD040000200C00002075
:1004F000002003E00021044A1154401C012149025C
:100500008842F7D3704700003402002010B5144829
:100510008068134988601348C0680821084311495E
:10052000C86008468068082108430E49886008466C
:100530000068082108430B4908600620002809DBF1
:1005400000BF00BFC206D20E01219140064A1160D1
:1005500000BF00BF00BF0021062000F019FF10BD42
:10056000000001400004014000E100E000B500236C
:100570003EE0212000F004FC002000F001FC7F2080
:1005800000F0FEFB222000F0FBFB5906080E00F0F5
:10059000F7FB5900491CC8B200F0F2FB00203349B8
:1005A0004860084640683249084330494860084678
:1005B0004068491408432D49486000BF2B488069B2
:1005C000022108400028F9D04020284988620020F4
:1005D0000AE000BF25498969022211400029F9D0AB
:1005E0000021224A9162401CFE28F2D3581CC3B25B
:1005F000022BBEDB212000F0C3FB7E2000F0C0FBFD
:100600007F2000F0BDFB222000F0BAFB002000F0AC
:10061000B7FB072000F0B4FB0020144948600846EF
:100620004068144908431149486008464068491425
:1006300008430E49486000BF0C4880690221084009
:100640000028F9D040200949886200200AE000BF54
:1006500006498969022211400029F9D00021034A84
:100660009162401C1028F2D300BD000000540040ED
:100670007800FF027800110200B587B018220BA1A4
:1006800001A8FFF777FD002304E001A9C85C00F092
:1006900077FB5B1C182BF8D3002000E0401C7D2169
:1006A000C9008842FAD307B000BD0000AFD580A8CA
:1006B0001FD300408D14A0C0DA0281CFD9F1DB70C6
:1006C000A4A620000920C0060069082108400028CF
:1006D00009D101200C4908600C4800680121084339
:1006E0000A49086008E009480068400840000749D6
:1006F0000860002006490860064840690821084350
:1007000004494861704700000C00002000200040B0
:100710000800002000040140F0B591B00F26002031
:100720000F9000250E900D904B240C9000270B90FD
:10073000FE490A684868896808920A910990FB4A4C
:100740000C3207CA05AB07C3F84A18321168506863
:100750009268049202910390F548006801210843D1
:10076000F3490860CAE2FFF7C3FE0F9880190F90A3
:100770000A210F98FFF795FD10900A211098484321
:100780000F99081A0F90012F7ED1E9480068B843ED
:10079000E74908606D1E64212846FFF782FD0A21A3
:1007A0000090FFF77EFD06204143E248081806222C
:1007B00001460190E048FFF733FD0A212846FFF784
:1007C00070FD0A210090FFF76CFD06204143D948D7
:1007D0000818062201460190D748801DFFF720FD2A
:1007E0000A212846FFF75DFD06204143D14808183D
:1007F000062201460190D0480C30FFF711FDCF488A
:1008000080680090099908980190CC480CC801981C
:1008100000F07AFB7902059888422CDA6846007F5E
:1008200000280AD1C6488068009006990598019072
:10083000C3480CC8019800F067FB6846007F012898
:100840000AD1C04880680090069905980190BD487B
:100850000CC8019800F058FB6846007F02280AD1B6
:10086000B94880680090069905980190B6480CC870
:10087000019800F049FB01214902029888422EDAD2
:100880006846007C002800E03FE00AD1AC48806860
:100890000090039902980190A9480CC8019800F0B3
:1008A00033FB6846007C01280AD1A6488068009086
:1008B000039902980190A3480CC8019800F024FB0A
:1008C0006846007C02280AD19F48806800900399FE
:1008D000029801909C480CC8019800F015FB9B48B9
:1008E00080680090994800210CC8282000F00CFB7B
:1008F00000F06EFA00BF96480068002803D19548C2
:1009000000680028F7D011B0F0BD0E98401C0E9082
:100910000E9805280CD108A8007A002803D10120E0
:1009200008A9087202E0002008A9087200200E90B1
:1009300005991098081A059002991098081A0290C3
:100940006846007F002821D17D4905980968494201
:1009500088421BDAFFF7F2FB32210190FFF7ABFC74
:100960000298001908180590FFF7E8FB0321019091
:10097000FFF7A1FCC8B2694608776D1C062128461E
:10098000FFF78FFC002901D1761CA41C6846007F6C
:10099000012821D16B4905980968494288421BDA30
:1009A000FFF7CCFB32210190FFF785FC029800197C
:1009B00008180590FFF7C2FB03210190FFF77BFCAD
:1009C000C8B2694608776D1C06212846FFF769FC06
:1009D000002901D1761CA41C6846007F022821D181
:1009E000594905980968494288421BDAFFF7A6FB76
:1009F00032210190FFF75FFC02980019081805905A
:100A0000FFF79CFB03210190FFF755FCC8B2694634
:100A100008776D1C06212846FFF743FC002901D109
:100A2000761CA41C6846007C002821D14449029809
:100A30000968494288421BDAFFF780FB32210190A6
:100A4000FFF739FC0598001908180290FFF776FBAC
:100A500003210190FFF72FFCC8B2694608746D1C92
:100A600006212846FFF71DFC002901D1761CA41C95
:100A70006846007C012821D1324902980968494220
:100A800088421BDAFFF75AFB32210190FFF713FC73
:100A90000598001908180290FFF750FB03210190F8
:100AA000FFF709FCC8B2694608746D1C0621284688
:100AB000FFF7F7FB002901D1761CA41C6846007CD7
:100AC000022821D1204902980968494288421BDA4C
:100AD000FFF734FB32210190FFF7EDFB0598001979
:100AE00008180290FFF72AFB03210190FFF7E3FBB0
:100AF000C8B2694608746D1C06212846FFF7D1FB71
:100B0000002901D1761CA41C11480068012809D1D4
:100B10000C98002801D101200B9001200C9000209E
:100B20000B4908600C98012823D115E0A416000891
:100B30000004004010000020A6000020F401002066
:100B4000000200200C0200201802002024020020D5
:100B50000C000020040000200B98012809D10998FE
:100B6000122806DA0998401C0990002008A908728A
:100B70000AE00C98012807D10B98012804D10998A4
:100B8000122801D100200B900C98012812D10B984B
:100B900000280FD1099800280CDD0D98082803D2F1
:100BA0000D98401C0D9002E00998401E099000200D
:100BB00008A908720C98012809D10B98002806D1C1
:100BC0000998002803D10D900C904E49086008A8A0
:100BD000007A00280AD14C4880680090099908984A
:100BE000019049480CC8019800F08EF908A8007AD5
:100BF00001280AD145488068009009990898019019
:100C000042480CC8019800F07FF90121490205987B
:100C100088422FDA6846007F00280BD13C48806864
:100C2000009006990598019039480CC8019800F089
:100C30006BF907436846007F01280BD1354880686F
:100C4000009006990598019032480CC8019800F070
:100C50005BF907436846007F02280BD12E48806865
:100C600000900699059801902B480CC8019800F057
:100C70004BF90743012149020298884231DA68465C
:100C8000007C00280BD122488068009003990298CC
:100C900001901F480CC8019800F036F907436846D8
:100CA000007C01280BD11B488068009003990298B2
:100CB000019018480CC8019800F026F907436846CF
:100CC000007C02280BD11448806800900399029898
:100CD000019011480CC8019800F016F9074300F084
:100CE00077F800200D49086000BF0C480068002814
:100CF000FBD00B480068012800D100E033E500BFBD
:100D000000BF00E60C000020DC010020E80100200C
:100D1000000200200C020020180200200000002029
:100D2000040000201348C069012149050843114906
:100D3000C86108468069012108430E49886109207D
:100D4000C00600680521C90408430921C9060860D6
:100D50000846406A1121890108430921C9064862F1
:100D600001200549086008464068044908430249D3
:100D700048607047001002400054004078000202B2
:100D80000021114A516011464968104A11430E4A28
:100D9000516011464968521411430B4A516000BF1B
:100DA00009498969022211400029F9D08021064AA7
:100DB000916200BF04498969022211400029F9D0DB
:100DC0000149886270470000005400407800020228
:100DD00000B52120FFF7D4FF0020FFF7D1FF7F20CF
:100DE000FFF7CEFF2220FFF7CBFF0020FFF7C8FF61
:100DF0000420FFF7C5FF00203F49486008464068CF
:100E00003E4908433C494860084640684914084345
:100E10003949486000BF38488069022108400028ED
:100E2000F9D040203449886200200BE000BF3249ED
:100E30008969022211400029F9D03149095C2E4A02
:100E40009162401CFE28F1D300202B4948600846DF
:100E500040682A49084328494860084640684914C0
:100E600008432549486000BF2348806902210840A3
:100E70000028F9D040202049886200200DE000BF02
:100E80001D498969022211400029F9D01C4909181D
:100E9000E031897F184A9162401CFE28EFD3002080
:100EA0001549486008464068164908431249486099
:100EB00008464068491408430F49486000BF0E487F
:100EC0008069022108400028F9D040200A49886240
:100ED00000200EE000BF0849896902221140002964
:100EE000F9D007490918FF31E131097F024A9162BF
:100EF000401C0428EED300BD005400407800FF02DF
:100F000034020020780005020FB4FEB5044600202C
:100F100002900846CB175B0F1B18DB10DB00CB1AC7
:100F20007ED00B98401C0B900846CB175B0F1B180C
:100F3000DB100B9D5B190425EA1A0020E6E0002374
:100F4000DFE000283BD10B9D6D1EED006D18202DBC
:100F500034DA0A9D45430C9E7519ED5CCE17760F69
:100F60007618F610F6008E1B0827BE1BB540161823
:100F7000F6013619F618C84F0191BE5D3540002DB7
:100F800001D0012502950A9D45430C9E7519ED5C23
:100F9000CE17760F7618F610F6008E1B0827BE1BAC
:100FA000B5401618F6013619F618BB4F0191BE5D13
:100FB00035431618F6013619F618BD55A0E00B9DFD
:100FC0006D1E854235D1451E0A9E75430C9EAD1996
:100FD000ED5CCE17760F7618F610F6008E1B3541B5
:100FE0001618F6013619F618AB4F0191BE5D354063
:100FF000002D01D001250295451E0A9E75430C9EC9
:10100000AD19ED5CCE17760F7618F610F6008E1B34
:1010100035411618F6013619F6189F4F019100E078
:1010200079E0BE5D35431618F6013619F618BD5540
:1010300066E00A9D45430C9E7519ED5CCE17760F50
:101040007618F610F6008E1B0827BE1BB540161842
:10105000F6013619F618904F0191BE5D3540002D0E
:1010600001D0012502950A9D45430C9E7519ED5C42
:10107000CE17760F7618F610F6008E1B0827BE1BCB
:10108000B5401618F6013619F618834F0191BE5D6A
:1010900035431618F6013619F618BD55451E0A9E39
:1010A00075430C9EAD19ED5CCE17760F7618F610D1
:1010B000F6008E1B35411618F6013619F618019107
:1010C000BE5D3540002D01D001250295451E0A9ECA
:1010D00075430C9EAD19ED5CCE17760F7618F610A1
:1010E000F6008E1B35411618F6013619F6186A4FB0
:1010F0000191BE5D35431618F6013619F618BD5537
:101100005B1C0A9D9D4200DD1BE7401C0B9B83423C
:1011100000DD14E7BAE00A98001980283BDD0A9B3D
:1011200018198038181A01900846CB175B0F1B1846
:10113000DB100B9D5B190425EA1A002027E0002331
:1011400021E00A9D45430C9E7519ED5C1618F601C9
:101150003619F618504FBE5D3540002D01D00125DF
:1011600002950A9D45430C9E7519ED5C1618F60113
:101170003619F618484FBE5D35431618F601361974
:10118000F618BD555B1C019DAB42DADB401C0B9B86
:101190008342D4DC7AE0002C42DA0A9800190190EC
:1011A0000A9B0198181A00900846CB175B0F1B1872
:1011B000DB100B9D5B190425EA1A002400202BE0AC
:1011C000002325E00A9D45430C9E7519EE18009DED
:1011D000755D1618F6013619F6182F4FBE5D3540AD
:1011E000002D01D0012502950A9D45430C9E7519DD
:1011F000EE18009D755D1618F6013619F618264F83
:10120000BE5D35431618F6013619F618BD555B1C40
:10121000019DAB42D6DB401C0B9B8342D0DC35E00A
:101220000846CB175B0F1B18DB100B9D5B190425C1
:10123000EA1A002027E0002321E00A9D45430C9E86
:101240007519ED5C1618F6013619F618124FBE5DC9
:101250003540002D01D0012502950A9D45430C9E85
:101260007519ED5C1618F6013619F6180A4FBE5DB1
:1012700035431618F6013619F618BD555B1C0A9D44
:101280009D42DADC401C0B9B8342D4DC0298FEBCFE
:1012900008BC04B01847000034020020704700006A
:1012A00008480068012801D107490860054800681E
:1012B000401C044908600548006940084000034993
:1012C0000861704708000020040000200020004052
:1012D00001200449086004480069400840000249B0
:1012E00008617047000000200004004010B51B4852
:1012F000C069FF21013108431849C8610846C06927
:10130000022108431549C8617D21C90014480068BD
:10131000FEF7C7FF401E134988621348C86208469B
:10132000C068012108430F49C8607D21C9000C48ED
:101330000068FEF7B6FF401E0C4988621320C862A1
:101340000846C068012108430849C860132000F01E
:101350000FF8102000F00CF810BD00000010024043
:101360003002002000200040BB02000000040040CA
:10137000002809DB00BF00BFC206D20E0121914048
:10138000024A116000BF00BF7047000000E100E0AA
:1013900010B5002819DB1A4A03231B02D218830850
:1013A0009B00D2588307DC0EFF23A3409A438B0790
:1013B0001B0E8407E40EA3401A43114B032424029E
:1013C0001B198408A4001A5118E00E4A03071B0FCA
:1013D000083B9B089B00D2588307DC0EFF23A340E9
:1013E0009A438B071B0E8407E40EA3401A43054B58
:1013F0000407240F083CA408A4001A5110BD0000E3
:1014000000E100E01CED00E0002000E0401C1F496E
:101410008842FBD31E488069012108431C4988612A
:101420000846406901214904084319494861FFF70A
:1014300079FCFFF721F9FFF759FFFFF767F8FFF78E
:1014400095F821E01BE0002012490860124908606D
:1014500000BF04E01149095C114A1154401C0121EC
:1014600049028842F6DBFFF7B3FC05E0641C09483B
:101470000068012800D100E0F8E700BF00E0E2E7E3
:1014800000BF2046FFF71AF8DCE70000204E0000FE
:10149000001002400C00002004000020A4140008EA
:1014A00034020020000000000000000000000000E6
:1014B000000000F0F8D8F8F8F8F8F8F8000000009C
:1014C00000000000C0E0E0E0E0E0E0E0E0E0E0E0BC
:1014D000E0E0E0C0000000000000000000000000AC
:1014E00000000000000000000000000000000000FC
:1014F00000000000000000000000000000000000EC
:1015000000000000000000000000000000000000DB
:10151000000000000000F0F0F000000000000000FB
:1015200000000000000000000000C080000080C03B
:10153000F0F0F8FFFFFFFF47450501010000000044
:1015400000000000000101010101FFFFFFFF010198
:101550000101010000000000000000000000F8F898
:10156000F8F8F078383C780000C0E0F8F8381C1C37
:101570001C38F8F8E08000001878F8F8E08080E087
:10158000F8F87818000000000000000000000000DB
:1015900000FCFCF80000FFFFFF0000FEFE00000062
:1015A00000000000000000000000070F1F7FFFFF89
:1015B000FF7FFFFF1F0F070000000000000000007A
:1015C00000000000000000000000FFFFFFFF00001F
:1015D000000000000E0E0E0E0E0E0E0E0000FFFF9D
:1015E000FFFF000000000000007FFFFFFE8E8E0E58
:1015F0000E0E8F8F8F07000080E0F9FF7F1F3FFFE7
:10160000FFF1C0000000000000000000000000002A
:10161000000307070606FFFFFF03030301000000A6
:1016200000000000000000000000000000000705AE
:10163000000000070400000000000000000000009F
:101640000000000000000000000003070703000086
:101650000000000000000000000000000000030780
:101660000707000000000000000001030307070750
:101670000707070303000002070707010000000037
:101680000307070700000000000000000000000042
:101690000000000000000707070000000000000035
:1016A0000000000014000000000000000100000025
:1016B000C80000000000000000000000E2FFFFFF83
:1016C0000000000001000000E816000800000020F3
:1016D00034020000660400081C18000834020020D0
:1016E00044090000F40000080110263E5149453E1F
:1016F0001C427F40051561514946162141454B3139
:10170000161814127F10162745454539163C4A49CC
:10171000493016017109050316364949493616063E
:101720004949291E163E4149497A167E1111117EFA
:10173000167F020C027F1A7F1E6A415A15414141F1
:101740003E5E1F2040201F18167F091929461A46A1
:101750000C12313E3844444420061238167C0804EA
:101760000408062A38545454181810F8FCFEFEFEDB
:101770001EDEDE068EDEFEFEDE1E0D0322FCF858A7
:10178000081F3F7F7F7F787B011A780D03183F1F6A
:10179000180A8080F8FC747C7C3C389E080B161874
:1017A0001CFE9F1F7F4F07020220DE7E5F1FFF8F00
:1017B000200D11FCE068604013C0C01BFCFC064813
:1017C000090F1F1CFFFF1C1F0F136133E0E03707D9
:1017D00004FFFF101E4B3F20095B808052911A3C92
:1017E0001A13080E171F10FFFF407C2A3828331CDD
:1017F0001029601324016A200C9A440C1A640C5AB4
:10180000080C9A84181A940C5A140C1AB40C323618
:0C1810003204224C122013127A00000057
:04000005080001AD41
:00000001FF
